:020000040800F2
:1000000020520020690200081D4D0008C93C00086C
:10001000194D000889070008F1670008000000007A
:10002000000000000000000000000000215800084F
:10003000D514000800000000614D0008595B00085D
:10004000830200088302000883020008830200087C
:10005000830200088302000883020008830200086C
:100060008302000883020008D714000883020008F6
:10007000830200088302000883020008830200084C
:100080008302000883020008830200089707000823
:100090008B0700088302000883020008DD140008B3
:1000A000830200088302000883020008830200081C
:1000B000495C0008830200088302000883020008EC
:1000C000830200088302000883020008B356000878
:1000D0008302000887620008830200088302000888
:1000E00083020008830200088302000883020008DC
:1000F00083020008830200088302000883020008CC
:1001000083020008830200088302000883020008BB
:1001100083020008830200088302000883020008AB
:1001200083020008831400088F140008A514000837
:10013000830200088302000883020008EB0700081E
:10014000DF0700088302000883020008830200081A
:10015000B1140008BD140008C9140008A162000809
:10016000830200088302000883020008830200085B
:1001700083020008830200088302000800000000D8
:10018000830200088302000800F002F800F05CF827
:100190000AA090E8000C82448344AAF10107DA45E2
:1001A00001D100F051F8AFF2090EBAE80F0013F0D8
:1001B000010F18BFFB1A43F0010318478C8C000095
:1001C000AC8C00000A444FF0000C10F8013B13F017
:1001D000070408BF10F8014B1D1108BF10F8015BA0
:1001E000641E05D010F8016B641E01F8016BF9D193
:1001F00013F0080F1EBF10F8014BAD1C0C1B09D1EA
:100200006D1E58BF01F801CBFAD505E014F8016B5B
:1002100001F8016B6D1EF9D59142D6D370470000ED
:100220000023002400250026103A28BF78C1FBD8FF
:10023000520728BF30C148BF0B6070471FB508F098
:10024000B8FD1FBD10B510BD00F002F91146FFF753
:10025000F5FF07F083FA00F020F903B4FFF7F2FF8F
:1002600003BC00F023F90000094880470948004713
:10027000FEE7FEE7FEE7FEE7FEE7FEE7FEE7FEE756
:10028000FEE7FEE704480549054A064B70470000B3
:10029000375C000889010008204C00202052002013
:1002A000204E0020204E002053EA020C00F069800E
:1002B0002DE9F04B4FF00006002B1FBFB3FA83F57A
:1002C00003FA05F424FA05F65E4012BF1643B2FAAB
:1002D00082F502FA05F4C5F120051EBF22FA05FCDD
:1002E00044EA0C04203556EA044C4FEA144418BF83
:1002F000641C4FF000084FF00009904271EB030CB2
:1003000039D3002919BFB1FA81F701FA07F6B0FA1B
:1003100080F700FA07F6C7F120071EBF20FA07FC96
:1003200046EA0C062037B6FBF4FCA7EB0507103FA6
:1003300007F01F0BCBF120062CFA06F60CFA0BFB8C
:1003400044BFB3460026202FA4BF5E464FF0000BEB
:100350005BEA060C08BF4FF0010B19EB0B0948EBE9
:100360000608ABFB027C06FB02CC0BFB03CCC01BDC
:1003700071EB0C01C1E70B46024641464846BDE819
:10038000F08B13B5084318BF4FF0FF300146AFF3B1
:100390000080BDE81C40704710B5431C02E010F817
:1003A000011B71B18107FAD14FF0013202C88C1ADA
:1003B0008C4314EAC211F9D0C01A0A0603D0C01E39
:1003C00010BDC01A10BD0A0401D0801E10BD090264
:1003D000FCD0401E10BD4FF0000200B513469446FD
:1003E0009646203922BFA0E80C50A0E80C50B1F18D
:1003F0002001BFF4F7AF090728BFA0E80C5048BFA1
:100400000CC05DF804EB890028BF40F8042B08BF3E
:10041000704748BF20F8022B11F0804F18BF00F83A
:10042000012B704770477047704710B500F008F80F
:10043000006810BD10B5044600F002F8046010BD5D
:10044000004870478001002000487047800100206C
:100450007546FFF7F9FFAE4605006946534620F0A2
:100460000700854618B020B5FFF70CFFBDE8204017
:100470004FF000064FF000074FF000084FF0000B60
:10048000AC46ACE8C009ACE8C009ACE8C009ACE8CF
:10049000C00921F007018D46704710B50446AFF33F
:1004A00000802046BDE81040FFF7D7BE0149182064
:1004B000ABBEFEE72600020070470000B0F9003036
:1004C00040F2000CC2F2000C00EE103A9CED001A53
:1004D000B8EEC00A21EE000A81ED000AB0F9023040
:1004E0009CED001A00EE103AB8EEC00A21EE000AA8
:1004F00081ED010AB0F9043000EE103AB8EEC00AFE
:1005000021EE000A81ED020AC3798179007A1B028B
:1005100043EA0040084400EE100A9FED041AB8EECA
:10052000400A20EE010A82ED000A704700401C429A
:10053000B0F9002000EE102A40F20402C2F20002DC
:1005400092ED001AB8EEC00A21EE000A81ED000A11
:10055000B0F9023092ED001A00EE103AB8EEC00A7F
:1005600021EE000A81ED010AB0F9040000EE100A44
:10057000B8EEC00A21EE000A81ED020A704710B5FC
:1005800006F01EFA08B1802402E006F033F90446B2
:1005900006F0E4FC002814BF402006F01DFC2043B8
:1005A00010BD2DE9F04383B00025C4F2020590464A
:1005B0000F4606464FF00009284610210022CDE9DB
:1005C000009901F07DFE40F65C10C2F2000092211D
:1005D00005F0AEF86C4612202146062200F09CF889
:1005E00028461021012201F06BFEBDF90000BDF983
:1005F000021000EE100A40F20000C2F2000090ED7E
:10060000001AB8EEC00ABDF9042021EE000A87EDF9
:10061000000A00EE101A90ED001A02EE102AB8EE51
:10062000C00AB8EEC22A21EE000A21EE021A87EDB6
:10063000010A87ED021A05F580673846012100227C
:1006400001F03EFE00202146082200F065F8384601
:100650000121012201F034FE9DF800000F2825D170
:10066000BDF90200BDF9041000EE100A40F20400CA
:10067000C2F2000090ED001AB8EEC00ABDF90620E3
:1006800021EE000A86ED000A00EE101A90ED001A25
:1006900002EE102AB8EEC00AB8EEC22A21EE000A15
:1006A00021EE021A86ED010A86ED021A2846102173
:1006B000002201F005FE40F65C10C2F20000A2210B
:1006C00005F036F869462220022200F025F8284677
:1006D0001021012201F0F4FD9DF800009DF80110A9
:1006E000C00040EA51114FF60002CFF6FF72B9EB9D
:1006F000902F18BF114300EE101AB8EEC00AB4EEE6
:10070000001A20EE010AB3EE071A30EE010A88ED56
:10071000000A03B0BDE8F08370B50D4640F08001DB
:1007200040F65C10C2F20000144605F001F864B116
:1007300040F65C16C2F200063046552104F0F8FF80
:10074000013C210605F8010BF6D170BD0278407816
:10075000D20042EA50104FF6000C0023CFF6FF7C87
:10076000B3EB922F18BF40EA0C0000EE100AB8EE6F
:10077000C00AB4EE001A20EE010AB3EE071A30EEFA
:10078000010A81ED000A7047FEE740F2A860C2F25C
:10079000000000F0BBBF40F2A860C2F2000000F011
:1007A000B5BF70B540F20806C2F2000606F11802A5
:1007B0000C46054606F072FD28462146324606F0F4
:1007C0006DFD06F130022846214606F067FD06F170
:1007D000480228462146BDE8704006F05FBD40F261
:1007E000D060C2F2000000F091BF40F2D060C2F2CF
:1007F000000000F08BBF10B58AB0012000216C46CC
:100800000890CDE90610099120461821FFF7E3FD75
:1008100040F2A860C2F20000214600F081FE08B15B
:1008200000F066FE40F2A864C2F20004204601F027
:10083000B1F92046022100F060FE40F2D0640E20A3
:10084000C2F200040990204601F0A4F920460221DA
:1008500000F053FE0AB010BD82B04FF4FA5006F01B
:10086000BEFF9FED87AA40F2FC309FED861AB3EEE3
:100870000E8A0024C2F20000B0EE4A0AF0EE4A0AE4
:10088000F0EE481AB0EE4A2AF0EE4A2A019404F03B
:100890004BFA9FED7DCA9FED7DBA40F2B830C2F2AF
:1008A0000000B0EE4A0AF0EE4A0AB0EE4C1AF0EE42
:1008B0004B1AB0EE4A2AF0EE4A2A04F035FA40F21A
:1008C000E040DFED731AC2F20000B0EE081AB0EE9D
:1008D0004A0AF0EE4A0AB0EE4A2AF0EE4A2A04F03A
:1008E00023FA40F228309FED6B1AC2F20000F3EEBB
:1008F000001AB0EE4A0AF0EE4A0AB0EE4A2AF0EECA
:100900004A2A04F011FA40F26C30DFED630A9FEDE1
:10091000632AC2F20000F2EE0C1AB0EE4A0AB0EE00
:100920004C1AF0EE4B2A04F0FFF940F2D4509FED40
:100930005C1ADFED5C1AC2F20000B0EE4A0AF0EE7B
:100940004A0AB0EE4A2AF0EE4A2A04F0EDF99FED89
:1009500056DA9FED569A9FED56EA9FED56FA40F211
:100960004C40C2F20000B0EE4A0AF0EE4D0AB0EE82
:10097000491AF0EE4E1AB0EE4F2AF0EE4A2A04F071
:10098000D3F940F2D020C2F20000B0EE4A0AF0EEF5
:100990004D0AB0EE491AF0EE4E1AB0EE4F2AF0EEC4
:1009A0004A2A04F0C1F99FED44EA9FED449A40F2CF
:1009B0009C40DFED431AC2F20000B0EE4A0AF0EEAE
:1009C0004E0AB0EE4C1AB0EE492AF0EE4A2A04F074
:1009D000ABF940F2E4109FED3B1ADFED3B1AC2F297
:1009E0000000B0EE4A0AF0EE4A0AB0EE4A2AF0EEF3
:1009F0004A2A04F099F940F228209FED341ADFEDDD
:100A0000341AC2F20000B0EE4A0AF0EE4D0AB0EE1F
:100A1000492AF0EE4A2A04F087F940F24C509FED43
:100A20002D1AC2F20000B0EE4A0AF0EE4A0AF0EEC9
:100A30004B1AB0EE4A2AF0EE4A2A04F075F940F259
:100A400090509FED251ADFED251A9FED252AC2F261
:100A50000000B0EE4A0AF0EE4E0AF0EE4A2A04F028
:100A600063F940F20807C2F2000797ED190A40F255
:100A700024539FED1C1AC2F2000383ED000A43E0E9
:100A8000000000000000E14400401C460000484215
:100A90006F12833A00409C45000016449A99193F12
:100AA00000401C450000C8C20000FA4400B07E4669
:100AB00033335341CDCC4C3E00007A44CDCCCC3DB9
:100AC000666606410080BB450000C84200007A46C9
:100AD0006666864100803B450000FA456666C64072
:100AE0000AD7233C00009042000010C2CDCC4CBF7E
:100AF00000007042D0CCCC3D6666663F0000B44238
:100B0000CDCCCCBD0000CD421819043430EE010A22
:100B1000102C80ED010AF7D11FED0D0A03F114002E
:100B2000102100BF5A1892ED001A043931EE001A54
:100B3000A0EC011A0A1DF5D197ED130A97ED131ACF
:100B400097ED132A97ED133AB5EE402AB1EE434ADA
:100B5000F1EE10FAC8BFB0EE434A81EE041A1FED61
:100B60001D2A40F26C20C2F2000040F2752B40F2C8
:100B7000404A40F280251FED22BA1FED22CA1FED28
:100B800022DA1FED22FA5FED228A40F2952440F628
:100B9000FC4821EE021A30EE010A80ED000A97EDC2
:100BA000130A1FED281A40F2702030EE010AC2F23B
:100BB000000080ED000A40F6B410C2F200000068A8
:100BC00040F2143640F290494FF4C861C2F2000B73
:100BD000C2F2000AC2F20005B6EE00EAC2F2000458
:100BE000C2F20008C2F20006C2F20009816300BF2F
:100BF00006F00AFE9BF8001001900429C0F0B681AF
:100C00009AED000A9AED011A95ED002A95ED013A48
:100C100030EE420A31EE431A20EE000A21EE011AAC
:100C200030EE010AB1EEC0AAB14646462F46B4EEF8
:100C30004AAAF1EE10FA80F10A849AED000A9AEDC0
:100C4000011A97ED002A97ED013A30EE420A31EE93
:100C5000431A20EE000A21EE011A30EE011AB1EE1D
:100C6000C10AD046B4EE400AF1EE10FA80F1F583E5
:100C700040F2B430C2F20000007840F28002C2F2CA
:100C8000000202EBC001496852F8302040F2B23352
:100C9000B1EE401AB5EE40AAC2F20003F1EE10FA2E
:100CA000C8BFB0EE401AC7E90021198840F26C6253
:100CB000C2F2000282ED001A4A1CB4EE4B1ABC4686
:100CC000F1EE10FAC8BF002291B240F6C417B94243
:100CD0001A8021D0B1F5966F35D0B1F5487F4FD14C
:100CE000494640F2904940F208070B283246C2F2CA
:100CF0000009C246B0460E46C2F20007654673D8E8
:100D0000012101FA00F040F61401084267D00020EA
:100D1000C4F2B420A86067E00D2848D340F2B13097
:100D2000C2F2000001210170484640F2904940F2B1
:100D300008073146C2F20009C246B0460646C2F272
:100D40000007654650E0494640F2904940F20807E6
:100D50000C283246C2F20009C246B0460E46C2F224
:100D60000007654640D80121814041F61F421142EB
:100D70001FBF013040F2B431C2F20001087033E00D
:100D80001228484640F2904940F208073146C2F224
:100D90000009C246B0460646C2F20007654623D3A4
:100DA00040F2B430C2F20000112101701CE005389D
:100DB0000428484640F2904940F208073146C2F202
:100DC0000009C246B0460646C2F2000765460BD887
:100DD00040F2B0310120C2F2000108700BE010F4C3
:100DE000816F1CBF0020A86040F2B030C2F200004A
:100DF0000078012852D140F27C20C2F20000007835
:100E000068B906F001FD40F27821C2F200010860E5
:100E100040F27C210120C2F200012070087006F02F
:100E2000F3FC40F27821C2F200010968401AB0F5E3
:100E3000966F02D90020207030E040F27C20C2F290
:100E400000000078012829D106F0DEFC40F278216C
:100E5000C2F200010968401A40F68D2188421DD374
:100E600040F27C21C2F2000100220A7040F2B4324A
:100E700098F80000C2F200021178013088F80000F2
:100E8000C0B201310628117024BF052088F8000087
:100E900040F2B030C2F200000021017040F2B130E7
:100EA000C2F200000078012860D140F22430C2F282
:100EB00000000078A0B906F0A7FC40F6B411C2F219
:100EC000000140F220320968C2F2000210604FF4C3
:100ED000C870886340F224310120C2F2000108701A
:100EE00006F092FC40F22031C2F200010968401A7B
:100EF00040F2DD51884208D340F6B410C2F200003F
:100F000000684FF4C861816330E040F22430C2F2DF
:100F100000000078012829D106F076FC40F220314B
:100F2000C2F200010968401AB0F5FA6F1ED940F20A
:100F300024320021C2F20002117040F2B43298F85B
:100F40000000C2F200021178013088F80000C0B23F
:100F500001310A28117024BF092088F8000040F2EE
:100F6000B130C2F200000021017000BFB7F92200C9
:100F700096ED021A00EE100AB8EEC00A21EE0C2A15
:100F800020EE0D3A33EE022A86ED000A86ED011AB4
:100F900086ED022AB7F90A0099ED021A00EE100A4E
:100FA000B8EEC00A21EE0C3A20EE0D4A89ED000A97
:100FB00095ED020A34EE033A89ED011A33EE421A36
:100FC000B4EE4F0A40F6F84021EE0E1AF1EE10FA98
:100FD000C2F2000089ED023A80ED001A10D195EDC1
:100FE000000A9AED001A40F2FC3030EE410AC2F2DB
:100FF000000006F091F89AED011A95ED012A14E02F
:10100000B5EE400AF1EE10FA23D19AED010A95ED02
:10101000011A40F2FC3030EE410AC2F2000006F044
:101020007BF89AED001A95ED002A40F60850C2F2BE
:10103000000080ED000A40F2B83031EE420AC2F200
:10104000000006F069F840F60450C2F2000080ED9E
:10105000000A95ED020A9AED021A30EE410AB4EE4A
:10106000490AF1EE10FA69DD5846AB46554682460C
:1010700040F60850C2F2000090ED000A40F6F84039
:10108000C2F2000090ED001A40F26C10C2F20000B3
:1010900090ED00AA40F2E04030EE410AC2F20000BA
:1010A000C14606F039F840F2B828C2F2000898EDBF
:1010B000001A3AEE000A40F2283030EE410AC2F23D
:1010C000000006F029F898ED011A40F26C3030EE7D
:1010D000410AC2F2000006F01FF89BED021A95EDDE
:1010E000022A5C4631EE422AB1EEC21AA846B0EEA0
:1010F00040AAB4EE411AF1EE10FA80F1B48140F248
:10110000D450C2F20000B0EE410A06F005F840F6F5
:1011100038403AEE000AC2F2000080ED000A40F2C8
:101120009520D346C2F20000C246C84640F290491C
:10113000C2F20009254604465FE000BFB4EE680A2B
:10114000F1EE10FA59DA40F60850C2F2000090EDC4
:10115000000A40F6F840C2F2000090ED001A40F29A
:101160006C10C2F2000090ED00AA40F2E04030EEB8
:10117000410AC2F20000444605F0CEFF40F2B82812
:10118000C2F2000898ED001A3AEE000A40F2283048
:1011900030EE410AC2F2000005F0BEFF98ED011AE0
:1011A00040F26C3030EE410AC2F2000005F0B4FFAC
:1011B0009AED021A95ED022AB0EE40AA31EE422ACB
:1011C000B1EEC21AB4EE411AF1EE10FA80F152817A
:1011D00040F2D450B1EE410AC2F2000005F09CFF8B
:1011E00040F6EC40A04640F2952430EE4A0AC2F2A6
:1011F0000000C2F2000480ED000A40F2B820C2F202
:10120000000090ED000AB0EEC00AB4EE480AF1EE1C
:1012100010FA2DDDB7F92200404200EE100A40F22C
:10122000D020B8EEC00AC2F2000005F075FF40F60B
:101230003C40C2F2000080ED000AB7F90A004042CB
:1012400000EE100A40F24C40B8EEC00AC2F20000B4
:1012500005F062FF40F6F040C2F2000080ED000AA7
:10126000B7F93A00404200EE100AB8EEC00A41E079
:1012700040F63840C2F2000090ED000AB7F92200B3
:1012800001EE100AB8EEC11A40F2D02030EE410A49
:10129000C2F2000005F040FF40F63C40C2F2000000
:1012A00080ED000A40F6EC40C2F2000090ED000A2A
:1012B000B7F90A0001EE100AB8EEC11A40F24C402C
:1012C00030EE410AC2F2000005F026FF40F6F04081
:1012D000C2F2000080ED000A40F60450C2F20000A5
:1012E00090ED000AB7F93A0001EE100AB8EEC11A03
:1012F00030EE410A40F29C40C2F2000005F00CFFC3
:10130000207840F6F441C2F20001002840F26C203F
:1013100081ED000AC2F2000040F27021C2F2000129
:1013200008BF084690ED000A97ED131A40F2E4104A
:1013300030EE410AC2F2000005F0EEFEB7F95200AD
:1013400001EE100AB8EEC11A40F2282030EE410A30
:10135000C2F2000005F0E0FE40F24461C2F200017A
:1013600098F8000081ED000A40F22451C2F2000119
:1013700001EB800090ED000A97ED191A40F24C50F5
:1013800030EE410AC2F2000005F0C6FEB7F96A006D
:1013900001EE100AB8EEC11A40F2905030EE410A48
:1013A000C2F2000005F0B8FE9BF80000032840F6EA
:1013B0000050C2F2000080ED000A42D340F6F04037
:1013C000C2F2000090ED001A40F24461BDEEC11A75
:1013D000C2F2000111EE100A91ED001A00BA40F2BB
:1013E0002C1240F6F441000CC2F20002BDEEC11A0C
:1013F000C2F20001108311EE100A91ED001A00BA3A
:1014000040F63C41000CBDEEC11AC2F2000150830F
:1014100011EE100A91ED001A00BA000CBDEEC11ACF
:10142000908311EE100A00BA000CBDEEC00AD08302
:1014300010EE100A40F24C12010AC2F200021177BB
:10144000507701A8012106F0D2F9FFF7D1BB07F0D0
:101450005DFCB0EE40AAFFF7F0BBB0EE410A07F02A
:1014600055FCFFF705BCB0EE420A07F04FFCB0EEAA
:10147000401A44E6B0EE420A07F048FCB0EE401ACB
:10148000A6E640F69C00C2F2000000F009BC80B560
:1014900004F013FF40F21C70C2F20000BDE880406F
:1014A00000F0FEBB40F27C70C2F2000000F0F8BB1E
:1014B00040F2DC70C2F2000000F0F2BB40F6FC002B
:1014C000C2F2000000F0ECBB40F63C00C2F20000AB
:1014D00000F0E6BB7047102000F015BE80B520205C
:1014E00000F011FE4FF40070BDE8804000F00BBE2C
:1014F000EFF3108072B600BFFEE790F82020013AAB
:10150000012A04D8006800F11402002004E000F170
:10151000240201204FF480211368194311607047A1
:10152000B0B590F82020013A012A2FD846F2006089
:10153000C4F20000026842F001020260026822F474
:101540007C520260D1F814E0CC694A6A0368012C2D
:1015500043EA022202600EF01F024FF0010303FA79
:1015600002F2C3696FEA020C23EA0203C36113D0DB
:101570002CBBC36803EA0C03C360CB688C8844EAC5
:10158000034300EBCE0423640B4611E0416A41F4AF
:10159000802141620120B0BDC3681343C3600B6862
:1015A0008C8844EA034300EBCE04236401F10C036E
:1015B0008C681B8843EA044300EBCE0463644368F1
:1015C0008D6943EA0204D1F810E0096A002D08BFD2
:1015D00003EA0C0444604369BEF1000F43EA0204CD
:1015E00008BF03EA0C040129446102D1C169114317
:1015F000C161016821F0010101600020B0BD7047A8
:1016000010B590F82040013C012C70D8D0F800C0F3
:1016100000290CBFDCF80C40DCF81040A4076CD0AB
:101620000CEB011CDCF8B0410CF5D87E14F004047E
:101630009460DCF8B04119BFE4085460640D146094
:10164000DEF80040002904F00204D460DCF8B44164
:1016500004F00F041461DCF8B441C4F3072494616E
:10166000DCF8B4414FEA14445461DCF8B8211A7034
:10167000026802EB0112D2F8B8214FEA12225A7026
:10168000026802EB0112D2F8B8214FEA12429A70B6
:10169000026802EB0112D2F8B8214FEA1262DA7046
:1016A000026802EB0112D2F8BC211A71026802EB47
:1016B0000112D2F8BC214FEA12225A71026802EBE1
:1016C0000112D2F8BC214FEA12429A71026802EB71
:1016D0000112D2F8BC214FEA1262DA7100680CBF25
:1016E00000F10C0100F11001002020220AE000F1BD
:1016F000240101204FF4802204E000F124010120A4
:101700004FF400120B681A430A6010BD2DE9F04F28
:1017100081B0044600684669D0F804908768D0F824
:101720000CB0D0F810A0D0F81880F10701D1002536
:1017300049E0F9070ED00121BA07816007D4780784
:101740001DD4380721D4204600F050FA02E020468C
:1017500000F04DFA0025F8051CD520684FF4807183
:10176000BA05816007D478050CD4380510D420461A
:1017700000F03EFA0EE0204600F03BFA0AE04FF49B
:101780000065E8E705F5005504E04FF48055E2E711
:1017900005F58045F80316D520684FF48031BA036B
:1017A000816007D4780309D438030AD4204600F0B6
:1017B00021FA08E0204600F01EFA04E005F5004595
:1017C00001E005F58035300707D51BF0100004D087
:1017D000206845F400751021C160700708D51BF022
:1017E000080005D020680821C160204600F096F965
:1017F000B00706D52068C068800702D0204600F0F8
:101800008EF9700607D51AF0100004D0206845F450
:10181000806510210161B00608D51AF0080005D0D6
:10182000206808210161204600F0B0F9F00606D5D5
:1018300020680069800702D0204600F0A8F9B003B4
:1018400008D519F0100005D020681021416020460D
:1018500000F09EF9F00308D519F0080005D02068C3
:1018600008214160204600F0C7F9300440D55FEA06
:1018700049703AD506F4807008EA102028435FEAE0
:101880008871014648BF41F00201B20558BF0146C8
:101890005FEA48700D4648BF45F00405700558BF23
:1018A0000D46300521D518F070001ED01038000903
:1018B000052815D8DFE800F00306090C0F1245F0E3
:1018C00008050DE045F010050AE045F0200507E0A9
:1018D00045F0400504E045F0800501E045F48075E1
:1018E0002068816921F070018161206804214160D4
:1018F0004DB1606A40EA05012046616201B0BDE871
:10190000F04FFFF77CBE01B0BDE8F08FB0B5C8B1B5
:10191000044690F8200010B9204600F06FF82068C7
:10192000016841F00101016000F0CFFC054600BFF5
:1019300020684168C90707D100F0C7FC401B0B288D
:10194000F6D312E00120B0BD016821F00201016070
:1019500000F0BBFC054600BF2068416889070BD535
:1019600000F0B3FC401B0B28F6D3606A052140F45D
:101970000030606201203EE0217E0268012922F0F1
:10198000800208BF80320260617E0268012922F075
:10199000400208BF40320260A17E0268012922F0A5
:1019A000200208BF20320260E17E0268012922F095
:1019B000100218BF10320260217F0268012922F054
:1019C000080208BF08320260617F0268012922F024
:1019D000040208BF04320260D4E901C2D4E903352D
:1019E00061691A432A431143ACF101021143C161F9
:1019F00000200121606284F82010B0BDB0B586B02F
:101A0000044601A81421FEF7E6FC206846F6000112
:101A1000C4F20001884231D046F20041C4F2000114
:101A2000884279D140F29021C2F200010A6843F65F
:101A30003000C4F20200531C0B6052B90021009127
:101A4000016941F000710161016901F000710091CB
:101A50000099002100910168142441F008010160FF
:101A60000068132500F008000090009840F2004044
:101A7000C4F2020000F50060032131E043F63000BB
:101A80000021C4F202000091026942F0806202610A
:101A9000026902F080620092009A40F29022C2F243
:101AA000000213685D1C15604BB90091026942F099
:101AB00000720261026902F000720092009A0091C5
:101AC0000168402441F00201016000683F2500F0F8
:101AD00002000090009840F200406021C4F2020031
:101AE0000191022102910021039103210491092116
:101AF000059101A900F012FB28460521002200F003
:101B00009BFC284600F086FC20460521002200F0C0
:101B100093FC204600F07EFC06B0B0BD7047B0B527
:101B2000016846F60002C4F20002914217D046F264
:101B30000042C4F20002914218BFB0BD40F2F86406
:101B4000C2F2000404F11C05002122462B46FFF7D7
:101B500057FD20462946BDE8B040FEF722BE40F2C0
:101B6000F864C2F2000404F11C05002122462B4651
:101B7000FFF746FD40F20800C2F2000000F16002EB
:101B800020462946BDE8B04005F088BB7047704745
:101B900070470000B0B5044690F8200001281CD121
:101BA000022084F820002068016821F00101016012
:101BB00000F08BFB054600BF20684068C00712D0CC
:101BC00000F083FB401B0B28F6D3606A40F4003022
:101BD0006062052084F8200003E0606A40F4002081
:101BE00060620120B0BD00206062B0BD70477047E8
:101BF00070477047704770477047000070B5866D3A
:101C0000044600F062FB94F83510022925D1054600
:101C10002068216C026822F016020260426922F0FC
:101C20008002426109B9A16C19B1016821F0080173
:101C30000160016821F00101016000BF20680068B7
:101C4000C0070ED000F041FB401B0628F6D3202031
:101C50006065032084F835000CE080206065012079
:101C600008E0E06D3F2101FA00F0B060012084F847
:101C700035000020002184F8341070BD90F8351034
:101C8000022909D1052180F835100068016821F08A
:101C900001010160002070478021416501207047EB
:101CA000F0B581B004460020009040F21010C2F25E
:101CB00000000268D4E9166048F2B51337680821BD
:101CC000C1F64E3381403942A2FB03250CD0226875
:101CD00013685B0708D5136823F004031360B16031
:101CE000616D41F00101616501218140394208D0F7
:101CF00022685269120604D5B160616D41F002019B
:101D0000616504218140394208D022681268920737
:101D100004D5B160616D41F004016165102181401D
:101D2000394217D020680268120713D5B1600268E3
:101D30000168520306D4C90506D4016821F00801E0
:101D4000016001E0080301D4216C00E0A16C09B13D
:101D500020468847E16D202000FA01F23A423CD04B
:101D600020680368DB0638D5B26094F83530026825
:101D7000052B1AD122F016020260426922F080027D
:101D80004261226C0AB9A26C1AB1026822F0080200
:101D900002603F208840B060012084F83500216D4A
:101DA000002084F83400B9BB3BE0016852030CD436
:101DB000C9050ED4016821F010010160012084F8EA
:101DC0003500002084F8340003E0080301D4616C7E
:101DD00000E0E16B09B120468847606D08B3606D93
:101DE000C00717D0052084F835002068A90A0268CA
:101DF00022F00102026000BF009A01328A42009282
:101E000002D80268D207F7D1012084F835000020FB
:101E100084F83400E16C21B1204601B0BDE8F04007
:101E2000084701B0F0BD00002DE9F041044600F084
:101E30004CFAC4B10546022084F835000020216820
:101E400084F83400086820F0010008602168086800
:101E5000C0070BD000F039FA401B0528F6D903253E
:101E60002023032064E00120BDE8F081086848F2E7
:101E70003F02CFF21002D4E9013500EA020C04F16E
:101E80000C0898E8C10143EA0C032B431843D4E93A
:101E9000072E304338431043626A40EA0E00042A9A
:101EA00040EA08031CD1206BD4E90A2E40EA0E0058
:101EB000184308604869BEF1000F20F0030040EAB3
:101EC000020040F0040C11D0B8F5005F35D0B8F135
:101ED000000F42D1022A43D0012A38D0002A3EE026
:101EE0000B60486920F0070040EA020C01F0F8009E
:101EF0004AF6AB221038CAF6AA22A0FB02231A091E
:101F000048F6F653C0F600039A5C40F2FF335F28B0
:101F10004FF03F00C1F814C021EA030100FA02F0BB
:101F200088BF0431C4E9161288600023012500200F
:101F3000636584F83550BDE8F081032AD6D80125C1
:101F400040230120DFE802F0020C0203F0E7AEF1CB
:101F5000C070B0FA80F0400904E0032A04D3C5D170
:101F6000CEF300600028C1D0012540230120DFE727
:101F700070B590F834C0BCF1010F45D04FF0010CA2
:101F800080F834C0D0F858E090F835C0BCF1010FAB
:101F900037D14FF0020C80F835C04FF0000CC0F87C
:101FA00054C0D0F800C08468056CC06DDCF80060D7
:101FB000402C26F48026CCF80060CCF804300B4688
:101FC00004BF13460A463F2101FA00F0CCF808305E
:101FD000CCF80C20CEF80800DCF8000040F0160029
:101FE000CCF800002DB1DCF8000040F00800CCF87F
:101FF0000000DCF8000040F00100CCF800000020F8
:1020000070BD002180F83410022070BD10B50F287B
:1020100013DDB0F5007F32D0202842D010283FD108
:1020200040F24260C2F20000017841F0010101700B
:1020300040F24160C2F2000037E0012844D0082895
:102040002ED140F64041C2F20001087840F0010074
:102050000870087810F00100087021D0087800F0AE
:10206000FE000870087840F0020240F62840C2F2F4
:10207000000004300A70BDE8104005F041BB40F29A
:102080007420C2F200000178002918BF10BD40F290
:102090007521C2F200010A7801320A700121017033
:1020A00010BD40F2A160C2F20000017841F00101D0
:1020B000017040F6EC30C2F2000000780028EFD04A
:1020C000BDE8104005F02EBA06F0A7FA0128E7D0C7
:1020D00040F2B420C2F2000040F28C240068C2F248
:1020E0000004214606F050F820680028D8D04EF6AB
:1020F0000450CEF200004FF080510160BFF34F8FCB
:10210000BFF36F8F10BD43F61441C4F201010A689A
:10211000024214BF08607047FFF778BF2DE9F04F07
:1021200082B000F13E4241F6004502F1FF77C4F271
:102130000205082243F6004E4FEAB726A84208BF20
:102140000722C4F2010E072E38BF4FEAB72201253D
:10215000002600274FF00008009200BF0C6805FA27
:1021600008F914EA090F00F09F80D1F804B00322A7
:102170000BF0030CACF10104B240012C6FEA020A2F
:1021800010D88268CC6802EA0A02B4402243826016
:102190004268CBF3001422EA090204FA08F422434D
:1021A000426005E0BCF1030F02D14FF0030C20E0C8
:1021B000C2688C6802EA0A02B4402243BCF1020FF2
:1021C000C26016D16FF0030202EA58020244D2F84C
:1021D00020C007F01C050F230C69AB402CEA030359
:1021E00004FA05F52B431362D1F804B001250BF076
:1021F000030C02680CFA06F302EA0A021A431BF403
:10220000403F026050D0002243F644030192C4F2E2
:1022100002031A684FF6084C42F480421A601A68AA
:10222000CFF6FF7C02F480420192019A28F003026B
:10223000724452F80C3007F00C050F24AC40A34355
:10224000009C04FA05F52B4342F80C30DEF8082018
:102250004B6842EA090543F60C4CDC0258BF22EAFF
:102260000905CEF80850C4F2010CDCF800209C02ED
:1022700042EA090558BF22EA0905CCF80050DEF809
:1022800004209C0342EA090558BF22EA0905CEF85A
:102290000450DEF80020DB0342EA090558BF22EAB9
:1022A0000905CEF80050012508F101080437B8F1FE
:1022B000100F06F102067FF451AF02B0BDE8F08FB7
:1022C000002A08BF09048161704744F61810C2F261
:1022D00000000068704740F2741044F61811C2F212
:1022E0000000C2F2000100780A68104408607047DC
:1022F00080B543F60040C4F20200016841F4007169
:102300000160016841F480610160016841F48071FD
:102310000160032000F0BBF80F2000F004F800F08B
:1023200058F8002080BD70B586B0002543F6400106
:102330000195C4F202010A68044642F001020A60F3
:10234000096801A801F0010101910199694600F0B5
:1023500056F9049E002E18BF012600F06FF94DF6C5
:102360008361B040C4F21B31A0FB01014FF0FF308C
:1023700000EB914140F68C20C2F200004FF0804209
:1023800040F2E733C0E90021C0E9025305618561ED
:1023900000F03EFE0546C8B940F68C20C2F20000AF
:1023A00000F0C7FE054688B91C2000F033F80F2C5A
:1023B0000BD81C2021460022002500F03DF840F2F9
:1023C0007810C2F20000046000E00125284606B043
:1023D00070BD82B0002043F640010190C4F20201BA
:1023E0004A6842F480424A604A6802F4804201929C
:1023F000019A00900868002240F080500860086848
:102400000F2100F08050009000986FF0010002B0A2
:1024100000F012B800280ED4C1B200F01F00012253
:1024200002FA00F04EF20012CEF2000242EAD101AE
:1024300021F003010860704710B54EF60C5CCEF237
:10244000000CDCF80030C3F3022E8EF00704042CDD
:1024500028BF0424BEF103034FF0FF3E0EFA04F43C
:1024600038BF0023A14399400EFA03F39A43114366
:1024700000F00F0200F160430901043A03F56443E0
:102480006244002848BF02F10C03197010BD4EF6DB
:102490000C51CEF200010A684FF6FF031A4060F3B8
:1024A0000A2242F0806040F0FD7008607047000032
:1024B0002DE9F041002878D043F60008C4F2020864
:1024C0000446D8F800040D4600F00700884207D201
:1024D00088F80054D8F8000400F00700A84264D13E
:1024E0002068810717D5410705D5D8F8081041F4B1
:1024F000E051C8F80810010705D5D8F8081041F4D4
:102500006041C8F80810D8F80810A26821F0F0015E
:102510001143C8F80810C0073FD1D8F8000400F0F4
:102520000700A84207D988F80054D8F8000400F042
:102530000700A84239D12068410707D5D8F808100C
:10254000E26821F4E0511143C8F80810000708D5EB
:10255000D8F80800216920F4604040EAC100C8F8BA
:10256000080000F091F8D8F8081048F6CC52C1F3F2
:102570000311C0F60002515C40F2101220FA01F182
:1025800040F27810C2F200000068C2F2000211604E
:10259000FFF7C9FE0020BDE8F0816068811E0229B6
:1025A00006D2D8F80010890108D40120BDE8F081D6
:1025B00001281FD1D8F800108903F6D5D8F80810E3
:1025C00021F003010843C8F80800FFF77EFE064625
:1025D00041F28837D8F80800616800F00C00B0EBD1
:1025E000810F9AD0FFF771FE801BB842F2D9032009
:1025F000BDE8F081D8F800108907D6D5DEE70F22B4
:10260000026043F60802C4F20202136803F00303F7
:102610004360136803F0F0038360136803F4E0532E
:10262000C360D2F800C04FF4E05303EADC03036157
:10263000D2F8F80300F007000860704740F210106D
:1026400043F60801C2F20000C4F202010068096802
:1026500048F6DC52C1F38221C0F60002515CC8404A
:10266000704740F2101043F60801C2F20000C4F2B5
:1026700002010068096848F6DC52C1F34231C0F635
:102680000002515CC840704710B543F60404C4F220
:102690000204606800F00C0008280AD0042819BF62
:1026A00042F20040C0F2F40041F60030C0F2B70040
:1026B00010BD206821682368490241F60031C0F24C
:1026C000B70100F03F02C3F388105CBF42F2004143
:1026D000C0F2F401A1FB00010023FDF7E5FD216834
:1026E0000222C1F3014102EB4101B0FBF1F010BD48
:1026F0002DE9F04182B0002866D00446007843F608
:102700000006C007C4F202060BD0B06800F00C004F
:10271000042840F098803068800302D56068002863
:1027200052D0207880071AD5B06810F00C0F09D06D
:10273000B06800F00C00082840F09F8070684002EC
:1027400000F19B803068800702D5E06801283BD10A
:102750003068216920F0F80040EAC100306020783C
:10276000000733D42078400747D4A56955B3B06833
:1027700000F00C00082840F0B380012D24D07068D0
:10278000E16900F480028A421ED1216A00F03F0212
:102790008A4219D147F6C071626A0140B1EB821FCB
:1027A00012D1A16A4FF6FF73C903994300F4403276
:1027B000A1F580318A4207D1E16A00F07060B0EB88
:1027C000016F01D10020F1E00120EFE060690028F5
:1027D00040F20000C4F2472072D00121C0F8801EF0
:1027E000FFF773FD054600BF706F8007BAD4FFF78F
:1027F0006CFD401B0228F7D9D7E0306C10F08058F0
:102800000AD100200190306C40F080503064306C70
:1028100000F080500190019847F20007C4F20007D1
:102820003868C0053ED4386840F480703860FFF7DF
:102830004CFD05463868C00534D4FFF746FD401B03
:102840000228F7D9B1E0B06800F00C00082803D1E5
:10285000706840023FF55FAF6068B0F5803F07D019
:10286000B0F5A02F40F08B80306840F480203060BD
:10287000306840F4803030608BE0E068002851D050
:102880000020C4F2472001210160FFF71EFD05462C
:10289000306880073FF55CAFFFF717FD401B02284B
:1028A000F6D982E0A068012805D005284ED1306F06
:1028B00040F004003067306F40F0010030674FE0B7
:1028C0000021C0F8801EFFF700FD0546706F8007ED
:1028D0007FF548AFFFF7F9FC401B0228F6D964E00A
:1028E0000027C4F2472700203866FFF7EEFC022DD0
:1028F00005460BD1306880015BD5FFF7E6FC401B35
:1029000002284FF00300F5D950E000BF3068800185
:102910007FF558AFFFF7D9FC401B02284FF00300AA
:10292000F4D943E00020C4F2472000210160FFF702
:10293000CCFC0546306880077FF511AFFFF7C5FC7A
:10294000401B02284FF00300F4D92FE0316F00281C
:1029500021F001013167316F21F00401316749D065
:10296000FFF7B3FC054641F2883700BF306F8007A0
:1029700051D4FFF7AAFC401BB842F7D915E03168E3
:10298000002821F480313160316821F480213160E8
:102990004AD0FFF79AFC0546306880033FF5C1AE88
:1029A000FFF793FC401B6428F6D9032002B0BDE872
:1029B000F08104F11C052FCD084340EA8210D903B1
:1029C0004FF6FF729143A1F5803140EA056008435C
:1029D000706001203866FFF778FC0446306880019B
:1029E0003FF5F0AEFFF771FC001B02284FF003002B
:1029F000F4D9DBE7FFF769FC054641F2883700BFF1
:102A0000306F800707D5FFF760FC401BB8424FF0DE
:102A10000300F5D9CAE7B8F1000F7FF4A6AE306C19
:102A200020F080503064A0E6FFF74FFC054600BF61
:102A3000306880037FF575AEFFF747FC401B6428C4
:102A40004FF00300F4D9B1E77047B0B582B0044647
:102A500000684168826812F0400305D112F0010558
:102A600018BF11F040050ED1950704D511F080056F
:102A700001D0616C08E012F4B07F18BF11F020059E
:102A800007D102B0B0BD216C204602B0BDE8B04015
:102A90000847B3B194F85130032B07D100210191BD
:102AA000C1680191806801900198EAE7636D43F085
:102AB0000403636500230193C36801938368019352
:102AC000019B12F0200302F480720CD0636D43F07E
:102AD000010363650023019383680193036823F076
:102AE00040030360019B42B1626D42F008026265DF
:102AF0000022019282680192019A626D002AC0D080
:102B00004268890722F0E00242604FF0010284F837
:102B100051201ED0416845F2BF6521F0030141609C
:102B2000E06CC0F6000538B10565FFF7A7F818B1ED
:102B3000606D40F040006065A06C0028A1D0056584
:102B4000FFF79CF800289CD0606D40F04000606565
:102B500097E7204602B0BDE8B040FFF775BF70B5FB
:102B600038B10446406A30B10020206104F11400FD
:102B700007E001264BE06068B0F5827F03D004F1E6
:102B80001C00002101600026A66294F8510020B9C3
:102B9000204684F8506000F03CF8022084F8510090
:102BA00094E80F0001F48271056802F4044225F0F4
:102BB00040050560114403F400622369114403F0E9
:102BC00002026369114403F00102A369E56911443B
:102BD00003F40072114405F03802256A114405F02F
:102BE0008002A56A114305F4005211430160626A34
:102BF000042101EA134102F0100211444160C1694D
:102C000021F40061C1610120666584F851003046FD
:102C100070BD2DE9F04F85B00446006843F200070F
:102C2000C4F20107B84240F08380002643F630002A
:102C30000096C4F2020041696D4641F48051416141
:102C4000416946F2404801F4805100910099009694
:102C500001684FF0020941F00201016001684FF084
:102C6000030A01F0020100910099009601684FF0FB
:102C7000050B41F0010101600068294600F00100E8
:102C8000009000981820009007F55440C4F2020804
:102C9000CDE90196CDF80CA0CDF810B0FFF73EFAC3
:102CA0008020CDE9000902A880E8400C07F55040DB
:102CB0002946FFF733FA40F21C75C2F200054FF0C7
:102CC000C0674FF4806905F114001421C5E900873D
:102CD000C5E90266C5F81090FDF77DFB2846FFF7B1
:102CE000A3F808B1FEF704FCE564AC6340F27C7520
:102CF00008F11800C2F200054021C5E9000705F1FE
:102D0000080080E8420205F114001421FDF763FB7E
:102D10002846FFF789F808B1FEF7EAFB23200521D2
:102D20000022A564AC63FFF787FB2320FFF772FB4B
:102D300005B0BDE8F08F00002DE9F04381B00446F6
:102D400090F85000012801D10220C8E001201E4661
:102D500015460F4684F85000FFF7B7FA94F8511063
:102D6000814601290BD06068B0F5827F73D1A068DD
:102D700000284FF0020008BF042940F0AA80002F6D
:102D80004FF0010000F0A580002D00F0A280002E81
:102D900000F09F8094F85100002104281CBF0520FA
:102DA00084F851006165A563E687A6872763E686F8
:102DB0002068A686216461640168490603D401681D
:102DC00041F0400101606168731EE268B1FA81F16F
:102DD000B3FA83F3DDF8208049095B09B2F5006F8F
:102DE00041EA030139D131B137F8021BC1602763D1
:102DF000E08E0138E086012608F10105E08E10B969
:102E0000E08F00286ED02068816889070CD5E18E9C
:102E100051B1012E08D1216B002631F8022BC2607E
:102E20002163E18E0139E1868168C9070AD0E18F0B
:102E300041B1C068A16B012621F8020BA163E08FAC
:102E40000138E087FFF741FA002DD7D0A0EB090049
:102E50004045D3D33CE002203BE039B139780173DF
:102E6000206B01302063E08E0138E086012608F1F6
:102E7000010500BFE08E08B9E08F98B32068816833
:102E800089070ED5E18E61B1012E0AD1216B002692
:102E900009780173216B206801312163E18E0139CA
:102EA000E1868168C9070BD0E18F49B1C068A16B89
:102EB00001260870A06B0130A063E08F0138E08725
:102EC000FFF703FA002DD5D0A0EB09004045D1D380
:102ED0000320012184F85110002184F8501001B022
:102EE000BDE8F083204641464A4602F0EFFB18B1A8
:102EF000202060650120ECE7A06800284FF000006A
:102F0000E7D100902168CA68009289680091009911
:102F1000DFE770477047B0B590F83C20012A01D137
:102F200002211CE001F108053CCDD1E900CE23F4DB
:102F30007C5322F470521A432EF4F0431A432CF4BB
:102F4000E0431A4324F4C0431A432A43C96922F4D4
:102F50008042036811435964002180F83C10084600
:102F6000B0BD10B590F83C20012A4FF002024DD0C0
:102F700080F83D200268D2F804E0D2F808C00C685E
:102F80002EF07003234341F2FF74C4F20004A24206
:102F900053600BDC40F2FF73C4F200039A4213DC6F
:102FA000B2F1804F27D040F2004315E040F2FF33EA
:102FB000C4F201039A4212DC41F60003C4F200039A
:102FC0009A4218D0002312E040F60003C4F2000336
:102FD0009A4210D040F60043C4F2000309E044F2E4
:102FE0000003C4F201039A4205D040F20043C4F248
:102FF00001039A4204D149682CF08003194391607F
:103000000121002280F83D1080F83C20104610BDC0
:1030100040B310B5044690F83D0028B9002084F86C
:103020003C00204600F020F8022084F83D00206893
:10303000211D02F00FFE012084F8460084F83E00B6
:1030400084F83F0084F8400084F8410084F842008E
:1030500084F8430084F8440084F8450084F83D0077
:10306000002010BD0120704781B0006844F200418B
:10307000C4F2010188420ED10020009043F64400C2
:10308000C4F20200016841F400310160006800F4FC
:1030900000300090009801B0704790F83D10012971
:1030A0001CBF01207047022180F83D10006841F2EA
:1030B000FF71C4F2000188420BDC40F2FF71C4F2E0
:1030C0000001884213DCB0F1804F27D040F200416C
:1030D00015E040F2FF31C4F20101884212DC41F6F2
:1030E0000001C4F20001884218D0002112E040F62D
:1030F0000001C4F20001884210D040F60041C4F241
:10310000000109E044F20001C4F20101884205D047
:1031100040F20041C4F20101884204D1816801F00B
:103120000701062903D0016841F001010160002078
:10313000704790F83D1001291CBF01207047022103
:1031400080F83D10006841F2FF72C168C4F20002CD
:10315000904241F00101C1600BDC40F2FF71C4F20A
:103160000001884213DCB0F1804F27D040F20041CB
:1031700015E040F2FF31C4F20101884212DC41F651
:103180000001C4F20001884218D0002112E040F68C
:103190000001C4F20001884210D040F60041C4F2A0
:1031A000000109E044F20001C4F20101884205D0A7
:1031B00040F20041C4F20101884204D1816801F06B
:1031C0000701062903D0016841F0010101600020D8
:1031D0007047704710B5016804460869800744BF0E
:1031E000C8685FEA807038D40869400744BFC8687F
:1031F0005FEA40703DD40869000744BFC8685FEAD1
:10320000007043D40869C00644BFC8685FEAC06064
:1032100048D40869C0071CBFC8685FEAC0704ED1B7
:103220000869000644BFC8685FEA00604FD40869B7
:10323000400644BFC8685FEA406050D40869800611
:1032400046BFC8685FEA806010BD6FF0200220466C
:103250000A61BDE81040FFF75DBE6FF00200086133
:10326000012020778869800741D02046FFF7B1FF11
:1032700043E06FF00400086102202077886910F4B1
:10328000407F3ED02046FFF7A4FF40E06FF00800EB
:10329000086104202077C86980073CD02046FFF7EA
:1032A00098FF3EE06FF01000086108202077C869A1
:1032B00010F4407F39D02046FFF78BFF3BE06FF0E2
:1032C00001000861204600F044FA2168A8E76FF089
:1032D000800008612046FFF71CFE2168A7E76FF019
:1032E00040000861204600F03BFA2168A6E720462E
:1032F00000F0D8F8204600F0A9F9216800202077D6
:1033000072E7204600F0CEF8204600F09FF92168D1
:10331000002020776FE7204600F0C4F8204600F038
:1033200095F92168002020776CE7204600F0BAF874
:10333000204600F08BF921680020207769E710B55E
:1033400086B0044601A81421FDF745F820684FF621
:10335000FF71C4F2000188422BDD44F20041C4F247
:103360000101884249D040F20041C4F20101884283
:103370005BD00021C4F20101884240F0918000201E
:10338000009043F63000C4F20200016841F01001E1
:1033900001600068012100F01000009000984FF4D7
:1033A000D040019040F20040C4F2020000F54060BD
:1033B0006DE040F60001C4F2000188424ED041F6B3
:1033C0000001C4F2000188426AD10020009043F657
:1033D0003000C4F20200016841F00201016000689F
:1033E000092100F00200009000984FF48040019005
:1033F00040F20040C4F2020049E00020009043F691
:103400003000C4F20200016841F020010160006850
:1034100000F02000009000984020019040F2004011
:10342000C4F2020000F5805016E00020009043F640
:103430003000C4F20200016841F00401016000683C
:1034400000F00400009000984020019040F20040FD
:10345000C4F2020000F58060032118E00020009013
:1034600043F63000C4F20200016841F00801016037
:103470000068022100F00800009000984FF480409E
:10348000019040F20040C4F2020000F50060022208
:1034900002920022059101A9CDE90322FEF73EFE2A
:1034A00006B010BD70470000B0B5044690F83C006F
:1034B000012804BF0220B0BD0D464FEAB201012031
:1034C000032984F83C0037D8DFE801F0020A122211
:1034D0002068294602F04CFC206850F8181F0EE0C6
:1034E0002068294602F076FC206850F8181F16E084
:1034F0002068294602F0A2FC206850F81C1F41F009
:1035000008010160016821F00401016029690FE0F0
:103510002068294602F0C5FC206850F81C1F41F4C1
:1035200000610160016821F480610160296909027C
:103530000268114301600020002184F83C10B0BDF6
:1035400040B310B5044690F83D0028B9002084F837
:103550003C00204600F020F8022084F83D0020685E
:10356000211D02F077FB012084F8460084F83E001C
:1035700084F83F0084F8400084F8410084F8420059
:1035800084F8430084F8440084F8450084F83D0042
:10359000002010BD0120704781B000684FF6FF7118
:1035A000C4F20001884219DC40F60001C4F20001B7
:1035B00088422CD041F60001C4F20001884243D178
:1035C0000020009043F64000C4F20200016841F080
:1035D00040010160006800F0400033E040F200412B
:1035E000C4F20101884220D00021C4F201018842C6
:1035F0002AD10020009043F64000C4F20200416846
:1036000041F001014160406800F001001AE0002033
:10361000009043F64000C4F20200016841F004014A
:103620000160006800F004000CE00020009043F608
:103630004000C4F20200416841F00201416040686C
:1036400000F002000090009801B07047704741B14F
:1036500008290ED0042914BF00F1410200F13F02F5
:1036600009E090F83E20012A12D1022280F83E2083
:1036700012E000F140021278012A09D10222082941
:1036800008D0042914BF80F8412080F83F2003E0CF
:103690000120704780F84020006801F01F010122DE
:1036A000036A02FA01F123EA01020262026A11438B
:1036B00041F2FF72C4F20002904201620BDC40F260
:1036C000FF71C4F20001884213DCB0F1804F35D0A5
:1036D00040F2004115E040F2FF31C4F2010188429E
:1036E00014DC41F60001C4F20001884226D000211A
:1036F00014E040F60001C4F2000188421ED040F6FA
:103700000041C4F20001884218D01CE044F20001DC
:10371000C4F20101884211D040F20041C4F201011B
:10372000884210D1416C40F2004340F48062C4F200
:10373000010341F400419A42416404D1816801F0DF
:103740000701062903D0016841F001010160002052
:1037500070470068B0F1804F18BF7047FEF7BBBDDF
:103760007047704770470000B0B582B004460068EB
:103770000168C368426901F02F05202D03F0200580
:1037800006D12DB1204602B0BDE8B04002F058BCD1
:103790005FEA017C1EBF02F0010E03F4907212EB8F
:1037A0000E027CD1226B012A05D111F0100218BF44
:1037B00013F0100239D10A0623D513F0800220D06D
:1037C00094F83D10212940F01981A168B1F5805F7E
:1037D00003D12169002900F01981216A4A1C226263
:1037E00009784160E18C01390A04E18440F00681E6
:1037F000C16821F08001C160C16841F04001C16031
:10380000FCE0490640F1FA8013F0400100F0F68038
:10381000C16821F04001C1602021204684F83D109C
:1038200002B0BDE8B04000F04EBA0021019101683D
:1038300001914168019101994069400600F1908031
:10384000A08DE18DE28D002A00F0D880884200F042
:10385000D580401A216851E8031F226821F4907135
:1038600042E80313002BF5D1216851E8051F2268B7
:1038700021F0010142E80513002BF5D1202184F845
:103880003E100021216300BF216851E8031F226818
:1038900021F0100142E80313002BF5D1A2E0CA0782
:1038A00018BF13F4807203D0226C42F0010222642C
:1038B0004A0706D5BEF1000F03D0226C42F0020287
:1038C00022648A0706D5BEF1000F03D0226C42F0B5
:1038D00004022264BCF1000F09D545EA0E02B2FAD7
:1038E00082F2520903D1226C42F008022264226C57
:1038F000002A00F0838011F0200118BF002D03D0B2
:10390000204602F09DFB20684069216C00F04000D9
:1039100001F0080140186CD0204602F069FB2068D5
:10392000406940066CD500BF206850E8050F21684B
:1039300020F0400041E80502002AF5D1A06B0028E4
:103940005ED045F6F161C0F600010165FEF796F91B
:10395000002853D0A06B016D02B0BDE8B04008470D
:10396000A16B0868426893B2002B47D0A08D8342B8
:1039700044D2E285C969B1F5807F31D0206850E832
:10398000030F216820F4807041E80302002AF5D17A
:10399000206850E8050F216820F0010041E8050289
:1039A000002AF5D1206850E8050F216820F040007A
:1039B00041E80502002AF5D1202084F83E000020CD
:1039C000206300BF206850E8030F216820F010003A
:1039D00041E80302002AF5D1A06BFEF70FF9A08D94
:1039E000E18D401A81B2204602B0BDE8B040FFF739
:1039F000B8BE2046FFF7B6FE0020206402B0B0BD7E
:103A0000204602B0BDE8B040FFF7ACBE216A31F8F5
:103A1000022B6FF35F2242602162E3E650B310B5E0
:103A2000044690F83D0028B9002084F83C00204668
:103A300000F022F8242084F83D002068C16821F4B9
:103A40000051C160204602F05DFB2068016921F44D
:103A500090410161416921F02A014161C16841F44D
:103A60000051C16000202021206484F83D1084F8BA
:103A70003E1010BD012070472DE9F04F87B004467D
:103A800002A81421FCF7A7FC206841F20041C4F20F
:103A90000101884200F08A8041F20001C4F2010174
:103AA000884240F0F380002743F630000197C4F2CB
:103AB00002004169002541F0100141614169C4F2F1
:103AC000020501F01001019101990197016802AE10
:103AD00041F002010160016846F2284801F002014C
:103AE00001910199019701684FF0020941F001012C
:103AF000016000684FF0030A00F001000190019896
:103B0000802002904FF0070B05F580603146C4F22B
:103B10000208CDE90397CDF814A0CDF818B0FEF750
:103B2000FDFA4FF40070CDE9020904A880E8800C8A
:103B300028463146FEF7F2FA40F2DC7508F16000E3
:103B4000C2F200054FF000664FF480694FF48071B7
:103B500085E8C1002846C5E90379C5E90577C5E9C7
:103B600007176F62FEF760F908B1FDF7C1FCA563A6
:103B7000AC6340F63C0508F19000C2F2000540211C
:103B8000C5E9000605F1080080E8820205F114008D
:103B90001421FCF720FC2846FEF746F908B1FDF792
:103BA000A7FC656305F13800252566E0002643F68D
:103BB00030000196C4F20200416946F2284841F003
:103BC000200141614169C4F2020801F02001019124
:103BD00001990196016841F040010160006802A965
:103BE00000F04000019001984FF4844002900220C0
:103BF000CDE9030603200590082006900020C4F2BA
:103C0000020000F5C050FEF789FA40F6FC0508F105
:103C10007800C2F200054FF020674021C5E9000797
:103C200005F108004FF4806980E8420205F11400B4
:103C30001421FCF7D0FB2846FEF7F6F808B1FDF793
:103C400057FC6563AC6340F69C05C2F200054FF477
:103C50008070C5E906602846C5E90087C5E90266A7
:103C6000C5E90496C5E90866FEF7DEF808B1FDF778
:103C70003FFCA56305F1380047250460284605216F
:103C80000022FEF7D9FB2846FEF7C4FB07B0BDE8CB
:103C9000F08F10B590F83E30202B07D14FF0010483
:103CA00029B122B190F83C30012B02D102242046E8
:103CB00010BD0123002480F83C30046302F096FA22
:103CC000F5E7704770477047FEE7B0B540F2A024B3
:103CD000C4F24024002540F600002560C4F2020032
:103CE000016821F440210160016841F480210160F4
:103CF00040F2A420C4F241200560022003F0ECF958
:103D000001202060022003F0E7F92560B0BD70B506
:103D100040F2A024C4F24024002540F600002560B3
:103D2000C4F202000168012621F44021016001680B
:103D300041F48021016040F2A420C4F241200660D9
:103D4000022003F0C9F90220266003F0C5F92560BE
:103D500070BD00002DE9F04740F60001C4F20201F9
:103D60000A68804622F440200860086840F2A026D5
:103D700040F22427C4F240264FF000094FF0010A18
:103D8000C4F2412700250024086000BF0220C6F8C5
:103D9000009003F0A1F9C6F800A03868002818BF09
:103DA000012040EA4505012003F096F9072C04F1B3
:103DB0000104EBD3B8F1000F02D0FFF786FF01E05A
:103DC000FFF7A5FFE8B2BDE8F08700002DE9F0435A
:103DD00081B040F60001C4F202010A68044622F4F0
:103DE00040200860086840F2A02540F2A429C4F2EF
:103DF000402540F480204FF00008C4F241290126FC
:103E000000270860C5F80080E0B2C009C9F80000CA
:103E10000220640003F060F902202E6003F05CF9D8
:103E20000220C5F8008003F057F9072F07F10107BA
:103E3000EAD301B0BDE8F08370B540F60000C4F2EB
:103E40000200016840F2A42421F4402101600168CD
:103E500040F2A02541F480210160C4F241240120F8
:103E6000C4F2402520602860042003F035F90026C4
:103E70000420266003F030F92E6070BDB0B540F626
:103E80000000C4F20200016840F2A02421F44021A5
:103E90000160016840F2A42541F480210160C4F270
:103EA00040240020C4F2412520602860042003F053
:103EB00013F90121216004202960BDE8B04003F01E
:103EC0000BB9000070B540F60000C4F202000168B2
:103ED00040F2242421F4402101600168C4F241240D
:103EE00040F2A025016001260120C4F24025C4F85B
:103EF000806003F0F1F801202E6003F0EDF800205F
:103F0000216839B1FA2800F10100F9D3FFF7B6FFB3
:103F1000012070BD0020286070BD80B540F2A8600F
:103F200046F20041C2F20000C4F200010322002365
:103F300080E80E0000F10C014FF4102C4FF4001E2D
:103F400081E8085083618383FDF7E0FC18B1BDE888
:103F50008040FDF7CDBA80BD80B540F2D06046F616
:103F60000001C2F20000C4F200010322002380E835
:103F70000E0000F10C014FF4102C4FF4001E81E8EC
:103F8000085083618383FDF7C1FC18B1BDE8804010
:103F9000FDF7AEBA80BD80B582B00020019043F637
:103FA0003000C4F202000168002241F48001016087
:103FB0000068052100F48000019001983920FEF787
:103FC0003BFA3920FEF726FA3A2005210022FEF7B7
:103FD00033FA3A20FEF71EFA3B2005210022FEF7B5
:103FE0002BFA3B20FEF716FA442005210022FEF7AB
:103FF00023FA4420FEF70EFA452005210022FEF7A1
:104000001BFA4520FEF706FA462005210022FEF79E
:1040100013FA462002B0BDE88040FEF7FBB900006D
:1040200080B596B0204810AF0F901FA000F1040E8D
:104030009EE80E50806987E80E5015900FA8002169
:1040400003F0E9FB40F64841C2F200011D4A086056
:104050001CA000F1040E08929EE80E50806909AF82
:1040600087E80E500E9008A8002103F0D4FB40F61C
:104070004441C2F200011A4A086019A000F1040E7E
:1040800001929EE80E50806902AF87E80E500790BB
:1040900001A8002103F0BFFB40F64C41C2F2000131
:1040A000086016B080BD00BFFE8D0008A158000852
:1040B000030000000000000080000000000000007D
:1040C00000000000158E00085908000803000000D9
:1040D0000000000080000000000000000000000060
:1040E000088E00084558000803000000000000008A
:1040F0008000000000000000000000002DE9F04FEB
:1041000087B0002743F6300006970197C4F20200FB
:104110000168002541F0020101600168C4F2020556
:1041200001F002010191019901970168002241F01B
:10413000400101600168102601F0400101910199E0
:104140000197016841F001010160016801F001017E
:10415000019101990197016841F00801016001682E
:1041600001F00801019101990197016841F0800176
:104170000160016801F080010191019901970168D6
:1041800041F004010160016801F00401019101990D
:104190000197016841F020010160016801F02001F0
:1041A000019101990197016841F0100101600068D7
:1041B000102100F01000019001982846FEF780F8C9
:1041C00005F58064204648F20101002248F201080A
:1041D000FEF776F8029602AE4FF001094FF0030A9F
:1041E00028463146CDE90397CDF814A0FDF796FF98
:1041F000302002904FF4881B05F500603146CDE970
:1042000003B7FDF78BFF4FF40070CDE9020B05F506
:10421000805031460497FDF781FF20463146CDE9B5
:104220000289CDE9047AFDF779FF0A2005210022F1
:10423000FEF702F90A20FEF7EDF81720052100220B
:10424000FEF7FAF81720FEF7E5F807B0BDE8F08FA3
:1042500010B540F65C1043F20001C2F20000C4F257
:1042600001014FF4827200234FF0010C4FF4007EE5
:10427000102480E80E000A21C0E90333C0E905CE0E
:10428000C461C0E90833C0E90A31FEF768FC18B11F
:10429000BDE81040FDF72CB910BD80B588B040F6E0
:1042A000FC1044F200420021C2F20000C4F20102FC
:1042B000532340F2CF7CCDE90611CDE90411C0E9CA
:1042C0000023C0E9021C01618161FEF7A1FE08B173
:1042D000FDF70EF940F6FC10C2F20000FFF730F9CE
:1042E00008B1FDF705F9602001900020CDE902003A
:1042F000059040F6FC10C2F2000001A90022FFF771
:10430000D3F808B1FDF7F4F840F6FC10C2F2000053
:10431000FFF715F808B080BD10B588B040F644200E
:1043200041F600010024C2F20000C4F2000140F294
:10433000E733CDE90644CDE90444532280E8160072
:10434000C0E903348461FFF7FBF808B1FDF7D0F84A
:104350006020CDE901040220039040F64420C2F21F
:10436000000001A900220594FFF79EF808B1FDF7AF
:10437000BFF840F64420C2F20000FEF7E0FF08B0AC
:1043800010BDB0B592B009AC002520461C21CDE986
:104390001055FCF720F801A82021FCF71CF840F686
:1043A000B4100021C2F20000C4F2010144F61F6300
:1043B000A72280E82600C0E90335C0E90555FFF7CC
:1043C000BFF808B1FDF794F840F6B410C2F200004F
:1043D00010A9FEF7C6FD08B1FDF78AF86020099024
:1043E000201D1821FBF7F7FF40F6B410C2F20000C1
:1043F00021460422FFF758F808B1FDF779F840F696
:10440000B410C2F2000009A90822FFF74DF808B164
:10441000FDF76EF840F6B410C2F2000009A90C22B4
:10442000FFF742F808B1FDF763F801AC204614210C
:10443000FBF7D1FF4FF4005006900020089040F6A3
:10444000B410C2F200002146FEF765FD08B1FDF789
:104450004FF840F6B410C2F20000FEF770FF12B041
:10446000B0BD80B58AB040F6D42040F600020021ED
:10447000C2F20000C4F2000253234FF4FA6CCDE9FB
:104480000811CDE90611CDE90411C0E90023C0E906
:10449000021C01618161FFF753F808B1FDF728F8AC
:1044A00040F6D420C2F2000008A9FEF75AFD08B178
:1044B000FDF71EF8602001900020CDE90200059074
:1044C00040F6D420C2F2000001A90822FEF7ECFF5A
:1044D00008B1FDF70DF840F6D420C2F20000FEF757
:1044E0002EFF0AB080BDB0B592B009AC00252046C1
:1044F0001C21CDE91055FBF76EFF01A82021FBF729
:104500006AFF40F61C3040F20041C2F20000C4F2E3
:10451000010140F2CF73532280E82600C0E9033541
:10452000C0E90555FFF70CF808B1FCF7E1FF40F6CC
:104530001C30C2F2000010A9FEF713FD08B1FCF711
:10454000D7FF60200990201D1821FBF744FF40F69B
:104550001C30C2F20000214600220025FEF7A4FF15
:1045600008B1FCF7C5FF01AC20461421FBF733FF6F
:104570004FF40050069040F61C30C2F20000214675
:104580000895FEF7C8FC08B1FCF7B2FF40F61C30F6
:10459000C2F20000FEF7D3FE12B0B0BD10B540F677
:1045A000643441F20000C2F20004C4F201004FF48E
:1045B000E13100220C2384E807002046C4E90322ED
:1045C000C4E90532E261FFF729FA08B1FCF790FF70
:1045D000236840F21861D868C2F2000140F0100C64
:1045E00020461C22C3F80CC0BDE81040FFF751BBA9
:1045F00080B540F6A83041F20041C2F20000C4F29A
:10460000010100234FF00C0C4FF4E13280E80E0062
:10461000C0E90333C0E905C3C361FFF7FFF918B16F
:10462000BDE88040FCF764BF80BD0000B0B52DED53
:10463000108B84B0B5EE403AF0EE416AB0EE609A6D
:10464000B0EE40AAF1EE10FA044617D1F5EE403A6A
:10465000F1EE10FA12D1B5EE404AF1EE10FA0DD19A
:104660002046B0EE4A0AF0EE490AB0EE661A04B0EF
:10467000BDEC108BBDE8B04000F000BAF5EE401A7A
:1046800045F6DF15F1EE10FAC5F637750AD1B5EE2D
:10469000402AF1EE10FA05D1F5EE402AF1EE10FABB
:1046A00000F0628122EE020A21EEA11A31EE005AD8
:1046B00023EEA30A23EE031A31EE000A24EE041AB5
:1046C00031EE000A10EE100AFEEE007AA5EB600053
:1046D00001EE100A20EE270A20EE010AB7EE086A62
:1046E00020EE010A30EE060A20EE010A20EE03BA9F
:1046F00020EE23CA20EE04EA94ED020A94ED031A98
:1047000060EE00BAB6EE003A21EE01FA33EE6B4AE3
:1047100074EE4F5A94ED004A94ED017A64EE010A6A
:1047200067EE003A73EEE04A60EE01FA67EE019A36
:1047300033EEA01A67EE070A73EE608A38EECF3ABE
:10474000CDED034A6CEE244ACDED025A6BEE255AAC
:1047500024EE00DA2CEE033A2BEE011A64EE07AADF
:1047600075EEA44A7DEE295A31EE031A3FEEEA3A7D
:104770002EEE250A2EEE033A30EE240A33EE011A0D
:1047800030EE000A31EE011A21EE011A20EE000A85
:1047900030EE011AB1EEC10A22EEA23A33EE053A2A
:1047A00013EE100AA5EB600023EE273A05EE100A7F
:1047B00023EE053A23EE053A33EE063A23EE053AA8
:1047C00063EE21CA63EE02DA63EE22EAB4EE400A37
:1047D000F1EE10FA24EE048A80F13C8139EECD2A04
:1047E0003AEEAF3A2CEE031A2BEE024A34EE011ADF
:1047F00038EEEB4A2EEE045A35EE011A9DED026AB0
:1048000031EE011A20EE066A22EE017A36EE076AD0
:104810009DED037A38EE275A35EE0F5A20EE077ACF
:1048200063EE010A24EE011A20EE250A37EE207A03
:1048300030EE011A23EE2E0A2DEE854A34EE400AA0
:1048400027EE0E4A6CEE010A30EEC44A34EE000A3E
:1048500025EE2C4A2EEE825A40F60C5035EE444A94
:1048600021EE0B1A2EEE065AC2F2000035EE411A66
:1048700022EE2D2A2CEE833A90ED005A31EE041AE6
:1048800033EE422A26EE0C3A2BEE074A34EE433A38
:10489000B5EE405AF1EE10FA33EE022A3EDD90ED0D
:1048A000003A40F61C41C2F200019FED724A20EE30
:1048B000033A91ED005A23EE043A33EE053A81EDC6
:1048C000003A90ED003A40F62042C2F2000221EE9A
:1048D000033A92ED005A23EE043A33EE053A82EDA4
:1048E000003A90ED003A40F62440C2F2000022EE79
:1048F000033A90ED005A23EE043A33EE053A80ED88
:10490000003A91ED003A33EE0AAA92ED003A90EDAA
:10491000004A33EE099A74EE266A0FE040F61C4016
:10492000C2F200000021016040F62040C2F2000007
:10493000016040F62440C2F20000016040F27010B5
:10494000C2F2000090ED003A23EE000A90ED003A2A
:1049500030EE0AAA23EE010A90ED001A30EE099A11
:1049600021EE020A70EE266A9FED430A94ED014A99
:1049700094ED025A2AEE001A29EE002A94ED036AF9
:1049800026EE800A94ED003A22EE057A64EE410AA2
:1049900030EEC77A66EE000A37EE607A60EE050AFE
:1049A00063EE011A71EEA00A66EE021A70EEE10AD9
:1049B00060EE041A63EE022A72EEE11A66EE012A34
:1049C00022EE042A23EE000A33EE077A74EE200A60
:1049D00072EEA11A30EE020A25EE011A75EE211AC6
:1049E00030EE410A20EEA01A27EE072A36EE000A22
:1049F00032EE011A21EEA12A32EE011A20EE002A2F
:104A000032EE011A11EE100AA5EB6000BEEE003A7C
:104A100002EE100A21EE031A21EE021A21EE021A0A
:104A2000B7EE083A31EE031A21EE021A27EE012AF8
:104A300020EE813A21EE814A20EE010A84ED002A1F
:104A400084ED013A84ED024A84ED030A04B0BDEC22
:104A5000108BB0BDB0EE410ACDED016ACDED005A2C
:104A600004F054F9DDED005ADDED016AFEEE007A46
:104A7000B4E600BF6F12833A6F12033AF5EE401AA4
:104A800045F6DF1CF1EE10FAC5F6377C10D1B5EE15
:104A9000402AF1EE10FA0BD1F5EE402AF1EE10FAB1
:104AA00006D190ED014A90ED023A90ED032AC1E063
:104AB00022EE023A21EEA14A34EE033A22EEA24A55
:104AC00034EE033A13EE102AACEB6202BEEE005A4B
:104AD00004EE102A23EE053A23EE043A23EE043ABC
:104AE000B7EE086A33EE063A23EE043A23EE217A53
:104AF00063EE021A23EE226AD0ED002A90ED014AFD
:104B000090ED023A90ED032A63EE223A64EE024AF7
:104B100062EE845A62EEA22A74EEE33A62EE034A2F
:104B200032EE855A62EE022A75EEA44A72EE852AAA
:104B300040F60C5224EE865A61EEA25A62EE872AA3
:104B400026EE236AC2F2000236EE626AD2ED002A35
:104B500063EEA11A27EE247AF5EE402A35EEC55A07
:104B6000F1EE10FA37EE617A3EDDD2ED001A40F632
:104B70001C43C2F20003DFED662A65EE211AD3ED75
:104B8000003A61EEA21A71EEA31AC3ED001AD2ED3B
:104B9000001A40F62041C2F2000166EE211AD1ED62
:104BA000003A61EEA21A71EEA31AC1ED001AD2ED1D
:104BB000001A40F62442C2F2000267EE211AD2ED3A
:104BC000003A61EEA21A71EEA31AC2ED001AD3EDFB
:104BD000001A31EE800AD1ED001AD2ED002A71EEF2
:104BE000A00A32EE811A0FE040F61C41C2F2000129
:104BF00000220A6040F62041C2F200010A6040F63D
:104C00002441C2F200010A6040F27011C2F20001B8
:104C1000D1ED001A21EE855AD1ED001A35EE000AC9
:104C200021EE865A91ED006A75EE200A26EE075AAB
:104C300035EE011A9FED375A20EE050A20EE856AFF
:104C400021EE051A90ED005A26EE037A64EE400A32
:104C500030EEC77A62EE010A37EE607A61EE030A3F
:104C600065EE001A71EEA00A62EE061A70EEE10A15
:104C700074EE200A61EE041A65EE062A26EE044A56
:104C800025EE011A72EEE11A62EE002A31EE041AE4
:104C900023EE000A35EE077A72EEA11A31EE400AD1
:104CA00073EE211A32EE000A20EEA01A27EE072A30
:104CB00032EE011A21EEA12A32EE011A20EE002A6C
:104CC00032EE011A11EE101AACEB6101BEEE003AA1
:104CD00002EE101A21EE031A21EE021A21EE021A38
:104CE000B7EE083A31EE031A21EE021A27EE012A36
:104CF00020EE813A21EE814A20EE010A80ED002A61
:104D000080ED013A80ED024A80ED030A704700BF52
:104D10006F12833A6F12033AFEE70000FEE780ED60
:104D2000060AC0EC030A704747F27F2147F25D2272
:104D3000C0F60001C0F60002C0E90F2100F11C011D
:104D4000C1EC031A00F1280181EC030A0021416340
:104D500080F83810C0E90311C0E905117047000060
:104D6000EFF30980BFF36F8F154B1A681EF0100F19
:104D700008BF20ED108A20E9F04F10602DE90900EE
:104D80004FF0500080F31188BFF34F8FBFF36F8F48
:104D900003F0B0FA4FF0000080F31188BDE809007D
:104DA00019680868B0E8F04F1EF0100F08BFB0ECAB
:104DB000108A80F30988BFF36F8F704700BF00BF70
:104DC000500C00202DE9F04740F65C13C2F20003BE
:104DD000DF6C9B6CD7F800C0DCF8007027F001078F
:104DE000CCF800701B681F6827F001071F6000BF28
:104DF000DCF80070FF070BD0DCF8007027F001072B
:104E0000CCF80070F4E700BF1F6827F001071F60AF
:104E10001F68FF07F8D146F20C44C4F2020446F2C0
:104E2000080E04F14C0646F2884AC4F2020EB4455C
:104E3000C4F2020A11D9D4454BD046F27045C4F2EF
:104E40000205AC4553D12025256010252560082595
:104E500025600425256001256BE00EF1B005AC4509
:104E600016D946F21047C4F2020746F2284946F224
:104E70004048BC45C4F20209C4F2020871D0CC45D6
:104E80006CD0C4450CBF4FF400154FF0006569E0CD
:104E90000EF1500746F2100846F27009BC45C4F204
:104EA0000208C4F2020946D9CC4500F0A18046F2BE
:104EB0008805C4F20205AC4500F09C8046F2A005CE
:104EC000C4F20205AC450CBF4FF400154FF000656D
:104ED00092E04FF4006525604FF4806525604FF443
:104EE000007525604FF480752560402521E004F1B0
:104EF00094074FF00065BC4508BF4FF400152560CE
:104F00004FF0806508BF4FF4801525604FF00075A5
:104F1000BC4508BF4FF4002525604FF0807508BFE1
:104F20004FF4802525604FF48005BC4508BF4FF441
:104F3000803525603BE1C44561D046F22805C4F2C6
:104F40000205AC455DD046F24005C4F20205AC4511
:104F50000CBF4FF400154FF0006554E04FF40065AE
:104F600000E02025BC45CEF800540BD0CC4506D03F
:104F7000C4450CBF4FF480154FF0806503E04FF43B
:104F8000806500E01025BC45CEF800540BD0CC4520
:104F900006D0C4450CBF4FF400254FF0007503E068
:104FA0004FF4007500E00825BC45CEF800540BD046
:104FB000CC4506D0C4450CBF4FF480254FF080751A
:104FC00003E04FF4807500E00425BC45CEF80054A2
:104FD0000AD0CC4506D0C4450CBF4FF480354FF401
:104FE000800502E0402500E00125CEF80054DEE017
:104FF000202501E04FF40065CEF8045005E020259F
:1050000001E04FF40065CEF80050BC4512D9CC4504
:1050100023D046F28805C4F20205AC451FD046F203
:10502000A005C4F20205AC450CBF4FF480154FF04B
:10503000806516E0C44517D046F22805C4F2020583
:10504000AC4513D046F24005C4F20205AC450CBF96
:105050004FF480154FF080650AE0102501E04FF411
:105060008065CEF8045005E0102501E04FF480651E
:10507000CEF80050BC4512D9CC4523D046F2880565
:10508000C4F20205AC451FD046F2A005C4F20205E9
:10509000AC450CBF4FF400254FF0007516E0C44539
:1050A00017D046F22805C4F20205AC4513D046F2EB
:1050B0004005C4F20205AC450CBF4FF400254FF08B
:1050C00000750AE0082501E04FF40075CEF80450A1
:1050D00005E0082501E04FF40075CEF80050BC450E
:1050E00012D9CC4523D046F28805C4F20205AC455E
:1050F0001FD046F2A005C4F20205AC450CBF4FF428
:1051000080254FF0807516E0C44517D046F228057B
:10511000C4F20205AC4513D046F24005C4F20205C4
:10512000AC450CBF4FF480254FF080750AE0042594
:1051300001E04FF48075CEF8045005E0042501E04D
:105140004FF48075CEF80050BC4512D9CC4523D021
:1051500046F28805C4F20205AC451FD046F2A00510
:10516000C4F20205AC450CBF4FF480354FF4800506
:1051700015E0C44516D046F22805C4F20205AC4538
:1051800012D046F24005C4F20205AC450CBF4FF404
:1051900080354FF4800508E0012500E04025CEF879
:1051A000045004E0012500E04025CEF80050B34251
:1051B00011D9534547D046F27047C4F20207BB42AB
:1051C0004FD1202727601027276008272760042752
:1051D0002760012767E00EF1B004A34216D946F21A
:1051E0001044C4F20204A3427AD046F22845C4F225
:1051F0000205AB4271D046F24045C4F20205AB4213
:105200000CBF4FF400154FF000656AE00EF150043A
:10521000A3424AD946F27005C4F20205AB4200F03F
:10522000C68046F28805C4F20205AB4200F0C18098
:1052300046F2A005C4F20205AB420CBF4FF40015C4
:105240004FF00065B7E04FF4006727604FF48067C8
:1052500027604FF4007727604FF48077276040275E
:1052600021E004F194064FF00067B34208BF4FF409
:10527000001727604FF0806708BF4FF48017276042
:105280004FF00077B34208BF4FF4002727604FF07C
:10529000807708BF4FF4802727604FF48007B34220
:1052A00008BF4FF48037276080E146F21005C4F252
:1052B0000205AB4200F0828046F22805C4F20205E6
:1052C000AB427DD046F24005C4F20205AB420CBFB2
:1052D0004FF400154FF0006574E04FF4006500E0F6
:1052E0002025A342CEF8005413D046F22845C4F23C
:1052F0000205AB420AD046F24045C4F20205AB4279
:105300000CBF4FF480154FF0806503E04FF48065CB
:1053100000E01025A342CEF8005413D046F22845F1
:10532000C4F20205AB420AD046F24045C4F202057F
:10533000AB420CBF4FF400254FF0007503E04FF473
:10534000007500E00825A342CEF8005413D046F2C1
:105350002845C4F20205AB420AD046F24045C4F2E9
:105360000205AB420CBF4FF480254FF0807503E07F
:105370004FF4807500E00425A342CEF8005412D00B
:1053800046F22844C4F20204A3420AD046F2404442
:10539000C4F20204A3420CBF4FF480344FF48004E3
:1053A00002E0402400E00124CEF80044FEE0202585
:1053B00001E04FF40065CEF8045005E0202501E03F
:1053C0004FF40065CEF80050A34216D946F270059E
:1053D000C4F20205AB4227D046F28805C4F20205AA
:1053E000AB4223D046F2A005C4F20205AB420CBF8B
:1053F0004FF480154FF080651AE046F21005C4F2B4
:105400000205AB4217D046F22805C4F20205AB42B2
:1054100013D046F24005C4F20205AB420CBF4FF474
:1054200080154FF080650AE0102501E04FF480659B
:10543000CEF8045005E0102501E04FF48065CEF869
:105440000050A34216D946F27005C4F20205AB42E1
:1054500027D046F28805C4F20205AB4223D046F2BB
:10546000A005C4F20205AB420CBF4FF400254FF07B
:1054700000751AE046F21005C4F20205AB4217D0DF
:1054800046F22805C4F20205AB4213D046F24005AD
:10549000C4F20205AB420CBF4FF400254FF000757B
:1054A0000AE0082501E04FF40075CEF8045005E04D
:1054B000082501E04FF40075CEF80050A34216D93C
:1054C00046F27005C4F20205AB4227D046F28805C9
:1054D000C4F20205AB4223D046F2A005C4F2020595
:1054E000AB420CBF4FF480254FF080751AE046F2B6
:1054F0001005C4F20205AB4217D046F22805C4F2EB
:105500000205AB4213D046F24005C4F20205AB429D
:105510000CBF4FF480254FF080750AE0042501E0B0
:105520004FF48075CEF8045005E0042501E04FF4F7
:105530008075CEF80050A34216D946F27004C4F22A
:105540000204A34227D046F28804C4F20204A34214
:1055500023D046F2A004C4F20204A3420CBF4FF4CD
:1055600080344FF4800419E046F21004C4F20204BF
:10557000A34216D046F22804C4F20204A34212D079
:1055800046F24004C4F20204A3420CBF4FF480343C
:105590004FF4800408E0012400E04024CEF80440E9
:1055A00004E0012400E04024CEF80040CCF80C10C8
:1055B000D860CCF804205A60DCF8000040F001000C
:1055C000CCF80000186840F001001860BDE8F087D2
:1055D00070B540F65C13C2F200031E68DD6C74689F
:1055E00044F002047460746844F001047460346828
:1055F00044F0400434602C68266826F001062660DA
:105600002668F607F8D146F20C4EC4F2020E0EF1EF
:105610004C0546F2080CAC42C4F2020C04D94FF41B
:105620000016CEF8006012E00CF1B006B44204D9C6
:105630004FF40016CCF8006409E00CF15006B442B7
:105640004FF4001694BFCCF80060CCF8046043F22D
:105650000C06C4F20106A660E1606260216841F0B8
:1056600010012160996C09680B6823F001030B603D
:105670000B68DB07F8D1A94204D94FF00063CEF8DC
:10568000003012E00CF1B003994204D94FF00063EE
:10569000CCF8003409E00CF1500399424FF000635C
:1056A00094BFCCF80030CCF804308E60C8604A60FB
:1056B00070BD40F65C10C2F20000FDF7C6B9806B09
:1056C0000021C187C186FDF7BFB9000010B582B0C7
:1056D00040F21013C2F200031B6849F68174C1F254
:1056E0005E64A3FB043C04464FEA5C504FF47A73BB
:1056F000584301906068B0F5827F0DD113460A4689
:105700002046802100F02AF878B1606D40F020003A
:10571000606503200AE000BF019830B101980138AC
:105720000190206880680006F6D4002002B010BD09
:1057300080B582B08DF8071000218DF806104FF467
:105740007A7C0DF107010DF106020123CDF800C0AE
:10575000FDF7F2FA9DF8060002B080BD2DE9F04396
:1057600081B01E4690460D468146FCF7AEFD301ACC
:1057700000EB0807FCF7A9FD40F21011C2F200018E
:105780000968C1F3CB3179430091D9F800108A68D8
:105790002A40AA4216D1064608F1010474B1FCF76A
:1057A00094FD801BB8420FD2009800990028A1F107
:1057B00001010091D9F8001008BF07468868284009
:1057C000A842EBD0002028E0D9E900014268B1F5F9
:1057D000827F22F0E00242600BD1D9F80810B1F5C7
:1057E000004F02D0B1F5806F03D1016821F0400174
:1057F0000160D9F82810B1F5005F07D1016821F4E4
:1058000000510160016841F400510160012089F8F4
:105810005100002089F85000032001B0BDE8F0835A
:10582000074B19680868B0E8F04F80F30988BFF3A8
:105830006F8F4FF0000080F31188704700BF00BFEA
:10584000500C002082B040F2942840F2E01740F65D
:10585000D42940F274260025C2F20008C2F20007E3
:10586000C2F20009C2F2000601AC019501F0CCFFC2
:1058700098F800203988019022B1C8087C289CBF84
:1058800014313980D9F80000B1F5617F88BF29460D
:10589000C16320463221357001F0A9FFE6E7000020
:1058A00088B00020079000BFFAF769FE18B16420A5
:1058B00001F095FFF8E740F24866C2F2000606F1F3
:1058C0001400311D06F110020490CDE90221FAF70F
:1058D00068FE9FED9B8A40F6F0309FED960ADFED63
:1058E000960A9FED961AC2F20000F0EE481AFFF7F2
:1058F00016FA40F2A42AC2F2000A4FF07E50CAF80B
:1059000000000020CAE90100CAF80C0040F2211092
:1059100040F29961C2F20000C2F200010822FFF7D2
:1059200057FE40F6EC30C2F200000121017040F257
:105930009820C2F20000011D0830059040F23D6041
:10594000C2F200000230019040F2346040F2B4270D
:1059500040F2A16440F2426940F241659FED7B9ABA
:105960009FED7BAA40F2B8289FED7ABA9FED76CAE8
:105970009FED74DAC2F2000040F2982BC2F20007E9
:10598000C2F20004C2F20009C2F20005C2F200082D
:105990000230C2F2000B0691009000BF01F034FF0C
:1059A0000790002001F064FF02F0E4FD38602078E9
:1059B00000070BD5207800F0F700207040F29960C6
:1059C000C2F2000004990130FAF7B2FD99F8000024
:1059D00040070BD599F8000006F1200200F0FB000B
:1059E00089F8000000980399FAF768FD28784007C5
:1059F0005AD5287800F0FB002870DDE90101FAF79C
:105A0000A5FE40F29860C2F20000007896ED040A0C
:105A1000012823D1554640F6F03AC2F2000A30EE92
:105A20000C0A504601F0D8FB9AED0A0AB5EE400A7E
:105A3000F1EE10FA07DA40F6F0310020C2F2000170
:105A4000B0EE480A8862BDEEC00AAA4640F241653F
:105A500010EE100AC2F2000520E000BFB4EE4D0ABD
:105A6000F1EE10FA18DD40F6ED32C2F200021078C5
:105A70000130C1B2C92910700ED340F298610120E3
:105A8000C2F20001087040F6F03044F20001C2F2A8
:105A90000000C4F21C51016241F2873040F6FC1153
:105AA000C2F2000109684863301DD0EC031A06F108
:105AB000140090EC030A40F62840C2F200000430C3
:105AC00090EC033A5046FEF7B1FDDDE90532504651
:105AD000594601F0C9FC9BED000A9BED011A9BEDB4
